{
  "_format": "hh-sol-artifact-1",
  "contractName": "Cauldron",
  "sourceName": "contracts/Cauldron.sol",
  "abi": [
    {
      "inputs": [
        {
          "internalType": "contract IBentoBoxV1",
          "name": "bentoBox_",
          "type": "address"
        },
        {
          "internalType": "contract IERC20",
          "name": "magicInternetMoney_",
          "type": "address"
        }
      ],
      "stateMutability": "nonpayable",
      "type": "constructor"
    },
    {
      "anonymous": false,
      "inputs": [
        {
          "indexed": false,
          "internalType": "uint128",
          "name": "accruedAmount",
          "type": "uint128"
        }
      ],
      "name": "LogAccrue",
      "type": "event"
    },
    {
      "anonymous": false,
      "inputs": [
        {
          "indexed": true,
          "internalType": "address",
          "name": "from",
          "type": "address"
        },
        {
          "indexed": true,
          "internalType": "address",
          "name": "to",
          "type": "address"
        },
        {
          "indexed": false,
          "internalType": "uint256",
          "name": "share",
          "type": "uint256"
        }
      ],
      "name": "LogAddCollateral",
      "type": "event"
    },
    {
      "anonymous": false,
      "inputs": [
        {
          "indexed": true,
          "internalType": "address",
          "name": "from",
          "type": "address"
        },
        {
          "indexed": true,
          "internalType": "address",
          "name": "to",
          "type": "address"
        },
        {
          "indexed": false,
          "internalType": "uint256",
          "name": "amount",
          "type": "uint256"
        },
        {
          "indexed": false,
          "internalType": "uint256",
          "name": "part",
          "type": "uint256"
        }
      ],
      "name": "LogBorrow",
      "type": "event"
    },
    {
      "anonymous": false,
      "inputs": [
        {
          "indexed": false,
          "internalType": "uint256",
          "name": "rate",
          "type": "uint256"
        }
      ],
      "name": "LogExchangeRate",
      "type": "event"
    },
    {
      "anonymous": false,
      "inputs": [
        {
          "indexed": true,
          "internalType": "address",
          "name": "newFeeTo",
          "type": "address"
        }
      ],
      "name": "LogFeeTo",
      "type": "event"
    },
    {
      "anonymous": false,
      "inputs": [
        {
          "indexed": true,
          "internalType": "address",
          "name": "from",
          "type": "address"
        },
        {
          "indexed": true,
          "internalType": "address",
          "name": "to",
          "type": "address"
        },
        {
          "indexed": false,
          "internalType": "uint256",
          "name": "share",
          "type": "uint256"
        }
      ],
      "name": "LogRemoveCollateral",
      "type": "event"
    },
    {
      "anonymous": false,
      "inputs": [
        {
          "indexed": true,
          "internalType": "address",
          "name": "from",
          "type": "address"
        },
        {
          "indexed": true,
          "internalType": "address",
          "name": "to",
          "type": "address"
        },
        {
          "indexed": false,
          "internalType": "uint256",
          "name": "amount",
          "type": "uint256"
        },
        {
          "indexed": false,
          "internalType": "uint256",
          "name": "part",
          "type": "uint256"
        }
      ],
      "name": "LogRepay",
      "type": "event"
    },
    {
      "anonymous": false,
      "inputs": [
        {
          "indexed": true,
          "internalType": "address",
          "name": "feeTo",
          "type": "address"
        },
        {
          "indexed": false,
          "internalType": "uint256",
          "name": "feesEarnedFraction",
          "type": "uint256"
        }
      ],
      "name": "LogWithdrawFees",
      "type": "event"
    },
    {
      "anonymous": false,
      "inputs": [
        {
          "indexed": true,
          "internalType": "address",
          "name": "previousOwner",
          "type": "address"
        },
        {
          "indexed": true,
          "internalType": "address",
          "name": "newOwner",
          "type": "address"
        }
      ],
      "name": "OwnershipTransferred",
      "type": "event"
    },
    {
      "inputs": [],
      "name": "accrue",
      "outputs": [],
      "stateMutability": "nonpayable",
      "type": "function"
    },
    {
      "inputs": [],
      "name": "accrueInfo",
      "outputs": [
        {
          "internalType": "uint64",
          "name": "lastAccrued",
          "type": "uint64"
        },
        {
          "internalType": "uint128",
          "name": "feesEarned",
          "type": "uint128"
        }
      ],
      "stateMutability": "view",
      "type": "function"
    },
    {
      "inputs": [
        {
          "internalType": "address",
          "name": "to",
          "type": "address"
        },
        {
          "internalType": "bool",
          "name": "skim",
          "type": "bool"
        },
        {
          "internalType": "uint256",
          "name": "share",
          "type": "uint256"
        }
      ],
      "name": "addCollateral",
      "outputs": [],
      "stateMutability": "nonpayable",
      "type": "function"
    },
    {
      "inputs": [],
      "name": "bentoBox",
      "outputs": [
        {
          "internalType": "contract IBentoBoxV1",
          "name": "",
          "type": "address"
        }
      ],
      "stateMutability": "view",
      "type": "function"
    },
    {
      "inputs": [
        {
          "internalType": "address",
          "name": "to",
          "type": "address"
        },
        {
          "internalType": "uint256",
          "name": "amount",
          "type": "uint256"
        }
      ],
      "name": "borrow",
      "outputs": [
        {
          "internalType": "uint256",
          "name": "part",
          "type": "uint256"
        },
        {
          "internalType": "uint256",
          "name": "share",
          "type": "uint256"
        }
      ],
      "stateMutability": "nonpayable",
      "type": "function"
    },
    {
      "inputs": [],
      "name": "claimOwnership",
      "outputs": [],
      "stateMutability": "nonpayable",
      "type": "function"
    },
    {
      "inputs": [],
      "name": "collateral",
      "outputs": [
        {
          "internalType": "contract IERC20",
          "name": "",
          "type": "address"
        }
      ],
      "stateMutability": "view",
      "type": "function"
    },
    {
      "inputs": [
        {
          "internalType": "uint8[]",
          "name": "actions",
          "type": "uint8[]"
        },
        {
          "internalType": "uint256[]",
          "name": "values",
          "type": "uint256[]"
        },
        {
          "internalType": "bytes[]",
          "name": "datas",
          "type": "bytes[]"
        }
      ],
      "name": "cook",
      "outputs": [
        {
          "internalType": "uint256",
          "name": "value1",
          "type": "uint256"
        },
        {
          "internalType": "uint256",
          "name": "value2",
          "type": "uint256"
        }
      ],
      "stateMutability": "payable",
      "type": "function"
    },
    {
      "inputs": [],
      "name": "exchangeRate",
      "outputs": [
        {
          "internalType": "uint256",
          "name": "",
          "type": "uint256"
        }
      ],
      "stateMutability": "view",
      "type": "function"
    },
    {
      "inputs": [],
      "name": "feeTo",
      "outputs": [
        {
          "internalType": "address",
          "name": "",
          "type": "address"
        }
      ],
      "stateMutability": "view",
      "type": "function"
    },
    {
      "inputs": [
        {
          "internalType": "bytes",
          "name": "data",
          "type": "bytes"
        }
      ],
      "name": "init",
      "outputs": [],
      "stateMutability": "payable",
      "type": "function"
    },
    {
      "inputs": [
        {
          "internalType": "address[]",
          "name": "users",
          "type": "address[]"
        },
        {
          "internalType": "uint256[]",
          "name": "maxBorrowParts",
          "type": "uint256[]"
        },
        {
          "internalType": "address",
          "name": "to",
          "type": "address"
        },
        {
          "internalType": "contract ISwapper",
          "name": "swapper",
          "type": "address"
        }
      ],
      "name": "liquidate",
      "outputs": [],
      "stateMutability": "nonpayable",
      "type": "function"
    },
    {
      "inputs": [],
      "name": "magicInternetMoney",
      "outputs": [
        {
          "internalType": "contract IERC20",
          "name": "",
          "type": "address"
        }
      ],
      "stateMutability": "view",
      "type": "function"
    },
    {
      "inputs": [],
      "name": "masterContract",
      "outputs": [
        {
          "internalType": "contract Cauldron",
          "name": "",
          "type": "address"
        }
      ],
      "stateMutability": "view",
      "type": "function"
    },
    {
      "inputs": [],
      "name": "oracle",
      "outputs": [
        {
          "internalType": "contract IOracle",
          "name": "",
          "type": "address"
        }
      ],
      "stateMutability": "view",
      "type": "function"
    },
    {
      "inputs": [],
      "name": "oracleData",
      "outputs": [
        {
          "internalType": "bytes",
          "name": "",
          "type": "bytes"
        }
      ],
      "stateMutability": "view",
      "type": "function"
    },
    {
      "inputs": [],
      "name": "owner",
      "outputs": [
        {
          "internalType": "address",
          "name": "",
          "type": "address"
        }
      ],
      "stateMutability": "view",
      "type": "function"
    },
    {
      "inputs": [],
      "name": "pendingOwner",
      "outputs": [
        {
          "internalType": "address",
          "name": "",
          "type": "address"
        }
      ],
      "stateMutability": "view",
      "type": "function"
    },
    {
      "inputs": [
        {
          "internalType": "uint256",
          "name": "amount",
          "type": "uint256"
        }
      ],
      "name": "reduceSupply",
      "outputs": [],
      "stateMutability": "nonpayable",
      "type": "function"
    },
    {
      "inputs": [
        {
          "internalType": "address",
          "name": "to",
          "type": "address"
        },
        {
          "internalType": "uint256",
          "name": "share",
          "type": "uint256"
        }
      ],
      "name": "removeCollateral",
      "outputs": [],
      "stateMutability": "nonpayable",
      "type": "function"
    },
    {
      "inputs": [
        {
          "internalType": "address",
          "name": "to",
          "type": "address"
        },
        {
          "internalType": "bool",
          "name": "skim",
          "type": "bool"
        },
        {
          "internalType": "uint256",
          "name": "part",
          "type": "uint256"
        }
      ],
      "name": "repay",
      "outputs": [
        {
          "internalType": "uint256",
          "name": "amount",
          "type": "uint256"
        }
      ],
      "stateMutability": "nonpayable",
      "type": "function"
    },
    {
      "inputs": [
        {
          "internalType": "address",
          "name": "newFeeTo",
          "type": "address"
        }
      ],
      "name": "setFeeTo",
      "outputs": [],
      "stateMutability": "nonpayable",
      "type": "function"
    },
    {
      "inputs": [],
      "name": "totalBorrow",
      "outputs": [
        {
          "internalType": "uint128",
          "name": "elastic",
          "type": "uint128"
        },
        {
          "internalType": "uint128",
          "name": "base",
          "type": "uint128"
        }
      ],
      "stateMutability": "view",
      "type": "function"
    },
    {
      "inputs": [],
      "name": "totalCollateralShare",
      "outputs": [
        {
          "internalType": "uint256",
          "name": "",
          "type": "uint256"
        }
      ],
      "stateMutability": "view",
      "type": "function"
    },
    {
      "inputs": [
        {
          "internalType": "address",
          "name": "newOwner",
          "type": "address"
        },
        {
          "internalType": "bool",
          "name": "direct",
          "type": "bool"
        },
        {
          "internalType": "bool",
          "name": "renounce",
          "type": "bool"
        }
      ],
      "name": "transferOwnership",
      "outputs": [],
      "stateMutability": "nonpayable",
      "type": "function"
    },
    {
      "inputs": [],
      "name": "updateExchangeRate",
      "outputs": [
        {
          "internalType": "bool",
          "name": "updated",
          "type": "bool"
        },
        {
          "internalType": "uint256",
          "name": "rate",
          "type": "uint256"
        }
      ],
      "stateMutability": "nonpayable",
      "type": "function"
    },
    {
      "inputs": [
        {
          "internalType": "address",
          "name": "",
          "type": "address"
        }
      ],
      "name": "userBorrowPart",
      "outputs": [
        {
          "internalType": "uint256",
          "name": "",
          "type": "uint256"
        }
      ],
      "stateMutability": "view",
      "type": "function"
    },
    {
      "inputs": [
        {
          "internalType": "address",
          "name": "",
          "type": "address"
        }
      ],
      "name": "userCollateralShare",
      "outputs": [
        {
          "internalType": "uint256",
          "name": "",
          "type": "uint256"
        }
      ],
      "stateMutability": "view",
      "type": "function"
    },
    {
      "inputs": [],
      "name": "withdrawFees",
      "outputs": [],
      "stateMutability": "nonpayable",
      "type": "function"
    }
  ],
  "bytecode": "0x60e06040523480156200001157600080fd5b506040516200434f3803806200434f833981016040819052620000349162000099565b600080546001600160a01b0319163390811782556040519091907f8be0079c531659141344cd1fd0a4f28419497f9722a3daafe3b4186f6b6457e0908290a36001600160601b0319606092831b811660805290821b1660c05230901b60a052620000f0565b60008060408385031215620000ac578182fd5b8251620000b981620000d7565b6020840151909250620000cc81620000d7565b809150509250929050565b6001600160a01b0381168114620000ed57600080fd5b50565b60805160601c60a05160601c60c05160601c614166620001e96000398061080852806108cb52806112275280611584528061161f5280611bb15280611cf45280611dba5280611e2b528061222a52806122da5280612541528061260352508061071b52806114815280611e705250806107d3528061089e5280610df15280610fb9528061109152806111f852806113c05280611557528061171e528061183a5280611b845280611c4b5280611d8d52806121fb52806122ab52806123065280612390528061250c52806125d6528061276852806128e7528061299d5280612a795280612bfe5280612e3e5280612f1b52506141666000f3fe6080604052600436106101c25760003560e01c806374645ff3116100f7578063912860c511610095578063d8dfeb4511610064578063d8dfeb451461049d578063e30c3978146104b2578063f46901ed146104c7578063f8ba4cff146104e7576101c2565b8063912860c5146104305780639b352ae114610450578063b27c0e7414610465578063cd446e2214610488576101c2565b80638285ef40116100d15780638285ef40146103b8578063860ffea1146103db578063876467f8146103fb5780638da5cb5b1461041b576101c2565b806374645ff3146103615780637dc0d1d0146103835780638062344414610398576101c2565b8063476343ee116101645780634ddf47d41161013e5780634ddf47d4146103115780634e71e0c814610324578063656f3d64146103395780636b2ace871461034c576101c2565b8063476343ee146102ae57806348e4163e146102c35780634b8a3529146102e3576101c2565b806315294c40116101a057806315294c40146102375780631c9e379b146102645780633ba0b9a914610284578063473e3ce714610299576101c2565b8063017e7e58146101c757806302ce728f146101f2578063078dfbe714610215575b600080fd5b3480156101d357600080fd5b506101dc6104fc565b6040516101e99190613a2a565b60405180910390f35b3480156101fe57600080fd5b5061020761050b565b6040516101e9929190613a77565b34801561022157600080fd5b50610235610230366004613437565b6105e5565b005b34801561024357600080fd5b50610257610252366004613481565b6106d4565b6040516101e99190613fde565b34801561027057600080fd5b5061025761027f3660046132d5565b6106f1565b34801561029057600080fd5b50610257610703565b3480156102a557600080fd5b50610257610709565b3480156102ba57600080fd5b5061023561070f565b3480156102cf57600080fd5b506102576102de3660046132d5565b610986565b3480156102ef57600080fd5b506103036102fe3660046134c1565b610998565b6040516101e9929190613fe7565b61023561031f366004613673565b6109e3565b34801561033057600080fd5b50610235610a98565b61030361034736600461357d565b610b25565b34801561035857600080fd5b506101dc6113be565b34801561036d57600080fd5b506103766113e2565b6040516101e99190613a87565b34801561038f57600080fd5b506101dc611470565b3480156103a457600080fd5b506102356103b33660046138c1565b61147f565b3480156103c457600080fd5b506103cd611689565b6040516101e9929190613fc4565b3480156103e757600080fd5b506102356103f6366004613481565b6116a3565b34801561040757600080fd5b506102356104163660046134c1565b611784565b34801561042757600080fd5b506101dc6117be565b34801561043c57600080fd5b5061023561044b3660046134ec565b6117cd565b34801561045c57600080fd5b506101dc611e29565b34801561047157600080fd5b5061047a611e4d565b6040516101e9929190613ff5565b34801561049457600080fd5b506101dc611e6e565b3480156104a957600080fd5b506101dc611e92565b3480156104be57600080fd5b506101dc611ea1565b3480156104d357600080fd5b506102356104e23660046132d5565b611eb0565b3480156104f357600080fd5b50610235611f24565b6002546001600160a01b031681565b6004805460405163d6d7d52560e01b815260009283926001600160a01b03169163d6d7d5259161053e9160059101613aba565b6040805180830381600087803b15801561055757600080fd5b505af115801561056b573d6000803e3d6000fd5b505050506040513d601f19601f8201168201806040525081019061058f9190613612565b909250905081156105dc57600a8190556040517f9f9192b5edb17356c524e08d9e025c8e2f6307e6ea52fb7968faa3081f51c3c8906105cf908390613fde565b60405180910390a16105e1565b50600a545b9091565b6000546001600160a01b031633146106185760405162461bcd60e51b815260040161060f90613e18565b60405180910390fd5b81156106b3576001600160a01b0383161515806106325750805b61064e5760405162461bcd60e51b815260040161060f90613d44565b600080546040516001600160a01b03808716939216917f8be0079c531659141344cd1fd0a4f28419497f9722a3daafe3b4186f6b6457e091a3600080546001600160a01b0385166001600160a01b0319918216179091556001805490911690556106cf565b600180546001600160a01b0319166001600160a01b0385161790555b505050565b60006106de611f24565b6106e984848461213a565b949350505050565b60086020526000908152604090205481565b600a5481565b60065481565b610717611f24565b60007f00000000000000000000000000000000000000000000000000000000000000006001600160a01b031663017e7e586040518163ffffffff1660e01b815260040160206040518083038186803b15801561077257600080fd5b505afa158015610786573d6000803e3d6000fd5b505050506040513d601f19601f820116820180604052508101906107aa91906132f1565b600b54604051636d289ce560e11b8152919250600160401b90046001600160801b0316906000907f00000000000000000000000000000000000000000000000000000000000000006001600160a01b03169063da5139ca90610834907f00000000000000000000000000000000000000000000000000000000000000009086908690600401613c55565b60206040518083038186803b15801561084c57600080fd5b505afa158015610860573d6000803e3d6000fd5b505050506040513d601f19601f82011682018060405250810190610884919061396e565b604051633c6340f360e21b81529091506001600160a01b037f0000000000000000000000000000000000000000000000000000000000000000169063f18d03cc906108f9907f000000000000000000000000000000000000000000000000000000000000000090309088908790600401613b5e565b600060405180830381600087803b15801561091357600080fd5b505af1158015610927573d6000803e3d6000fd5b5050600b8054600160401b600160c01b031916905550506040516001600160a01b038416907fbe641c3ffc44b2d6c184f023fa4ed7bda4b6ffa71e03b3c98ae0c776da1f17e790610979908590613fde565b60405180910390a2505050565b60096020526000908152604090205481565b6000806109a3611f24565b6109ad84846123fa565b600a5491935091506109c09033906126b9565b6109dc5760405162461bcd60e51b815260040161060f90613ca7565b9250929050565b6003546001600160a01b031615610a0c5760405162461bcd60e51b815260040161060f90613eb0565b610a1881830183613827565b80516003906000906004908290610a36906005906020880190613148565b50815461010091820a6001600160a01b03818102199092169782160296909617909155825491900a8085021990911694841602939093179092556003541615159050610a945760405162461bcd60e51b815260040161060f90613f1e565b5050565b6001546001600160a01b0316338114610ac35760405162461bcd60e51b815260040161060f90613e4d565b600080546040516001600160a01b03808516939216917f8be0079c531659141344cd1fd0a4f28419497f9722a3daafe3b4186f6b6457e091a3600080546001600160a01b039092166001600160a01b0319928316179055600180549091169055565b600080610b306131c2565b60005b888110156113825760008a8a83818110610b4957fe5b9050602002016020810190610b5e91906139a9565b90508260200151158015610b755750600a8160ff16105b15610b8a57610b82611f24565b600160208401525b60ff8116600a1415610be4576000806000898986818110610ba757fe5b9050602002810190610bb99190614017565b810190610bc69190613908565b925092509250610bdc82826103f6868c8c612826565b505050611379565b60ff811660021415610c44576000806000898986818110610c0157fe5b9050602002810190610c139190614017565b810190610c209190613908565b925092509250610c3b8282610c36868c8c612826565b61213a565b50505050611379565b60ff811660041415610ca157600080888885818110610c5f57fe5b9050602002810190610c719190614017565b810190610c7e91906138d9565b91509150610c9681610c91848a8a612826565b61284e565b505060018352611379565b60ff811660051415610d0457600080888885818110610cbc57fe5b9050602002810190610cce9190614017565b810190610cdb91906138d9565b91509150610cf381610cee848a8a612826565b6123fa565b600187529097509550611379915050565b60ff8116600b1415610da3576000806000898986818110610d2157fe5b9050602002810190610d339190614017565b810190610d40919061363f565b925092509250600080610d5161050b565b91509150841580610d5f5750815b8015610d6a57508381115b8015610d7d5750821580610d7d57508281115b610d995760405162461bcd60e51b815260040161060f90613f81565b5050505050611379565b60ff811660181415610e82576000806000806000808c8c89818110610dc457fe5b9050602002810190610dd69190614017565b810190610de3919061330d565b9550955095509550955095507f00000000000000000000000000000000000000000000000000000000000000006001600160a01b031663c0a47c938787878787876040518763ffffffff1660e01b8152600401610e4596959493929190613a3e565b600060405180830381600087803b158015610e5f57600080fd5b505af1158015610e73573d6000803e3d6000fd5b50505050505050505050611379565b60ff811660141415610f0a57610f00878784818110610e9d57fe5b9050602002810190610eaf9190614017565b8080601f0160208091040260200160405190810160405280939291908181526020018383808284376000920191909152508d92508c9150869050818110610ef257fe5b90506020020135878761295c565b9095509350611379565b60ff811660151415610f7557610f00878784818110610f2557fe5b9050602002810190610f379190614017565b8080601f016020809104026020016040519081016040528093929190818152602001838380828437600092019190915250899250889150612a529050565b60ff81166016141561104d576000806000898986818110610f9257fe5b9050602002810190610fa49190614017565b810190610fb191906136df565b9250925092507f00000000000000000000000000000000000000000000000000000000000000006001600160a01b031663f18d03cc843385610ff4868e8e612826565b6040518563ffffffff1660e01b81526004016110139493929190613b5e565b600060405180830381600087803b15801561102d57600080fd5b505af1158015611041573d6000803e3d6000fd5b50505050505050611379565b60ff8116601714156110e157600060608089898681811061106a57fe5b905060200281019061107c9190614017565b8101906110899190613755565b9250925092507f00000000000000000000000000000000000000000000000000000000000000006001600160a01b0316630fca8843843385856040518563ffffffff1660e01b81526004016110139493929190613bbc565b60ff8116601e14156111bb57606060006111638b8b8681811061110057fe5b905060200201358a8a8781811061111357fe5b90506020028101906111259190614017565b8080601f0160208091040260200160405190810160405280939291908181526020018383808284376000920191909152508c92508b9150612b409050565b915091508060ff166001141561118e5781806020019051810190611187919061396e565b96506111b4565b8060ff16600214156111b457818060200190518101906111ae9190613986565b90975095505b5050611379565b60ff8116600614156112fc5760008787848181106111d557fe5b90506020028101906111e79190614017565b8101906111f491906138c1565b90507f00000000000000000000000000000000000000000000000000000000000000006001600160a01b031663da5139ca7f0000000000000000000000000000000000000000000000000000000000000000611284611254858b8b612826565b604080518082019091526007546001600160801b038082168352600160801b909104166020820152906001612cf6565b60016040518463ffffffff1660e01b81526004016112a493929190613c55565b60206040518083038186803b1580156112bc57600080fd5b505afa1580156112d0573d6000803e3d6000fd5b505050506040513d601f19601f820116820180604052508101906112f4919061396e565b955050611379565b60ff81166007141561137957600087878481811061131657fe5b90506020028101906113289190614017565b81019061133591906138c1565b9050611375611345828888612826565b604080518082019091526007546001600160801b038082168352600160801b909104166020820152906000612d96565b9550505b50600101610b33565b508051156113b25761139633600a546126b9565b6113b25760405162461bcd60e51b815260040161060f90613ca7565b50965096945050505050565b7f000000000000000000000000000000000000000000000000000000000000000081565b6005805460408051602060026001851615610100026000190190941693909304601f810184900484028201840190925281815292918301828280156114685780601f1061143d57610100808354040283529160200191611468565b820191906000526020600020905b81548152906001019060200180831161144b57829003601f168201915b505050505081565b6004546001600160a01b031681565b7f00000000000000000000000000000000000000000000000000000000000000006001600160a01b0316638da5cb5b6040518163ffffffff1660e01b815260040160206040518083038186803b1580156114d857600080fd5b505afa1580156114ec573d6000803e3d6000fd5b505050506040513d601f19601f8201168201806040525081019061151091906132f1565b6001600160a01b0316336001600160a01b0316146115405760405162461bcd60e51b815260040161060f90613cde565b60405163097da6d360e41b81526001600160a01b037f000000000000000000000000000000000000000000000000000000000000000016906397da6d30906115b5907f000000000000000000000000000000000000000000000000000000000000000090309081908790600090600401613b88565b6040805180830381600087803b1580156115ce57600080fd5b505af11580156115e2573d6000803e3d6000fd5b505050506040513d601f19601f820116820180604052508101906116069190613986565b5050604051630852cd8d60e31b81526001600160a01b037f000000000000000000000000000000000000000000000000000000000000000016906342966c6890611654908490600401613fde565b600060405180830381600087803b15801561166e57600080fd5b505af1158015611682573d6000803e3d6000fd5b5050505050565b6007546001600160801b0380821691600160801b90041682565b6001600160a01b0383166000908152600860205260409020546116c69082612e0f565b6001600160a01b0384166000908152600860205260409020556006546116ec8183612e0f565b600655600354611707906001600160a01b0316838386612e32565b836001600160a01b03168361171c573361173e565b7f00000000000000000000000000000000000000000000000000000000000000005b6001600160a01b03167f9ed03113de523cebfe5e49d5f8e12894b1c0d42ce805990461726444c90eab87846040516117769190613fde565b60405180910390a350505050565b61178c611f24565b611796828261284e565b6117a233600a546126b9565b610a945760405162461bcd60e51b815260040161060f90613ca7565b6000546001600160a01b031681565b60006117d761050b565b9150506117e2611f24565b60008060006117ef6131c2565b50604080518082019091526007546001600160801b038082168352600160801b9091041660208201526118206131c2565b600354604051634ffe34db60e01b81526001600160a01b037f0000000000000000000000000000000000000000000000000000000000000000811692634ffe34db92611873929190911690600401613a2a565b604080518083038186803b15801561188a57600080fd5b505afa15801561189e573d6000803e3d6000fd5b505050506040513d601f19601f820116820180604052508101906118c2919061392e565b905060005b8b811015611abd5760008d8d838181106118dd57fe5b90506020020160208101906118f291906132d5565b90506118fe81896126b9565b611ab4576001600160a01b038116600090815260096020526040812054808e8e8681811061192857fe5b905060200201351161194c578d8d8581811061194057fe5b9050602002013561194e565b805b915061195a8183612f8f565b6001600160a01b0384166000908152600960205260408120919091559050611983868383612cf6565b905060006119be69152d02c7e14af68000006119ac8d6119a6866201b580612fb2565b90612fb2565b816119b357fe5b889190046000612d96565b6001600160a01b0385166000908152600860205260409020549091506119e49082612f8f565b6001600160a01b0380861660008181526008602052604090819020939093559151908f1691907f8ad4d3ff00da092c7ad9a573ea4f5f6a3dffc6712dc06d3f78f49b862297c40290611a37908590613fde565b60405180910390a3836001600160a01b0316336001600160a01b03167fc8e512d8f188ca059984b5853d2bf653da902696b8512785b182b2c813789a6e8486604051611a84929190613fe7565b60405180910390a3611a968a82612e0f565b9950611aa28983612e0f565b9850611aae8884612e0f565b97505050505b506001016118c7565b5083611adb5760405162461bcd60e51b815260040161060f90613daa565b611af8611ae785612fe9565b83516001600160801b031690613016565b6001600160801b03168252611b23611b0f84612fe9565b60208401516001600160801b031690613016565b6001600160801b03908116602084018190528351600780546001600160801b03191691841691909117909216600160801b909102179055600654611b679086612f8f565b600655604051636d289ce560e11b81526000906001600160a01b037f0000000000000000000000000000000000000000000000000000000000000000169063da5139ca90611bde907f0000000000000000000000000000000000000000000000000000000000000000908990600190600401613c55565b60206040518083038186803b158015611bf657600080fd5b505afa158015611c0a573d6000803e3d6000fd5b505050506040513d601f19601f82011682018060405250810190611c2e919061396e565b600354604051633c6340f360e21b81529192506001600160a01b037f000000000000000000000000000000000000000000000000000000000000000081169263f18d03cc92611c8792169030908e908c90600401613b5e565b600060405180830381600087803b158015611ca157600080fd5b505af1158015611cb5573d6000803e3d6000fd5b505050506001600160a01b03881615611d76576003546040516371a1ff0960e11b81526001600160a01b038a81169263e343fe1292611d2292909116907f000000000000000000000000000000000000000000000000000000000000000090339087908d90600401613b88565b6040805180830381600087803b158015611d3b57600080fd5b505af1158015611d4f573d6000803e3d6000fd5b505050506040513d601f19601f82011682018060405250810190611d739190613986565b50505b604051633c6340f360e21b81526001600160a01b037f0000000000000000000000000000000000000000000000000000000000000000169063f18d03cc90611de8907f000000000000000000000000000000000000000000000000000000000000000090339030908790600401613b5e565b600060405180830381600087803b158015611e0257600080fd5b505af1158015611e16573d6000803e3d6000fd5b5050505050505050505050505050505050565b7f000000000000000000000000000000000000000000000000000000000000000081565b600b546001600160401b03811690600160401b90046001600160801b031682565b7f000000000000000000000000000000000000000000000000000000000000000081565b6003546001600160a01b031681565b6001546001600160a01b031681565b6000546001600160a01b03163314611eda5760405162461bcd60e51b815260040161060f90613e18565b600280546001600160a01b0319166001600160a01b0383169081179091556040517fcf1d3f17e521c635e0d20b8acba94ba170afc041d0546d46dafa09d3c9c19eb390600090a250565b611f2c6131c2565b5060408051808201909152600b546001600160401b038116808352600160401b9091046001600160801b03166020830152420380611f6b575050612138565b6001600160401b0342168252611f7f6131c2565b50604080518082019091526007546001600160801b038082168352600160801b90910416602082018190526120025750508051600b80546020909301516001600160801b0316600160401b02600160401b600160c01b03196001600160401b0390931667ffffffffffffffff199094169390931791909116919091179055612138565b6000612045670de0b6b3a7640000612038856119a66312e687c087600001516001600160801b0316612fb290919063ffffffff16565b8161203f57fe5b04612fe9565b825190915061205d906001600160801b031682613045565b6001600160801b039081168352602085015161207a911682613045565b6001600160801b039081166020868101829052845160078054928701516001600160801b0319909316918516919091178416600160801b9290941691909102929092179091558451600b805467ffffffffffffffff19166001600160401b0390921691909117600160401b600160c01b031916600160401b9092029190911790556040517fee527de5e142bcc7fe0eddc4b9a04816d73f6307dd74f9204585910d60a8c0839061212b908390613fb0565b60405180910390a1505050505b565b604080518082019091526007546001600160801b038082168352600160801b90910416602082015260009061217190836001613074565b8151600780546020948501516001600160801b03908116600160801b029381166001600160801b031990921691909117169190911790556001600160a01b038616600090815260099092526040909120549091506121cf9083612f8f565b6001600160a01b03808616600090815260096020526040808220939093559151636d289ce560e11b81527f00000000000000000000000000000000000000000000000000000000000000009091169063da5139ca90612257907f0000000000000000000000000000000000000000000000000000000000000000908690600190600401613c55565b60206040518083038186803b15801561226f57600080fd5b505afa158015612283573d6000803e3d6000fd5b505050506040513d601f19601f820116820180604052508101906122a7919061396e565b90507f00000000000000000000000000000000000000000000000000000000000000006001600160a01b031663f18d03cc7f0000000000000000000000000000000000000000000000000000000000000000866123045733612326565b7f00000000000000000000000000000000000000000000000000000000000000005b30856040518563ffffffff1660e01b81526004016123479493929190613b5e565b600060405180830381600087803b15801561236157600080fd5b505af1158015612375573d6000803e3d6000fd5b50505050846001600160a01b03168461238e57336123b0565b7f00000000000000000000000000000000000000000000000000000000000000005b6001600160a01b03167fc8e512d8f188ca059984b5853d2bf653da902696b8512785b182b2c813789a6e84866040516123ea929190613fe7565b60405180910390a3509392505050565b60008080620186a061240d856032612fb2565b8161241457fe5b0490506124546124248583612e0f565b604080518082019091526007546001600160801b038082168352600160801b9091041660208201529060016130e9565b8151600780546020909401516001600160801b03908116600160801b029281166001600160801b0319909516949094178416919091179055600b549094506124a591600160401b9091041682613045565b600b80546001600160801b0392909216600160401b02600160401b600160c01b0319909216919091179055336000908152600960205260409020546124ea9084612e0f565b33600090815260096020526040808220929092559051636d289ce560e11b81527f00000000000000000000000000000000000000000000000000000000000000006001600160a01b03169163da5139ca9161256c917f000000000000000000000000000000000000000000000000000000000000000091899190600401613c55565b60206040518083038186803b15801561258457600080fd5b505afa158015612598573d6000803e3d6000fd5b505050506040513d601f19601f820116820180604052508101906125bc919061396e565b604051633c6340f360e21b81529092506001600160a01b037f0000000000000000000000000000000000000000000000000000000000000000169063f18d03cc90612631907f00000000000000000000000000000000000000000000000000000000000000009030908a908890600401613b5e565b600060405180830381600087803b15801561264b57600080fd5b505af115801561265f573d6000803e3d6000fd5b5050506001600160a01b0386169050337fb92cb6bca8e3270b9170930f03b17571e55791acdb1a0e9f339eec88bdb35e2461269a8785612e0f565b866040516126a9929190613fe7565b60405180910390a3509250929050565b6001600160a01b038216600090815260096020526040812054806126e1576001915050612820565b6001600160a01b0384166000908152600860205260409020548061270a57600092505050612820565b6127126131c2565b50604080518082019091526007546001600160801b03808216808452600160801b9092041660208301819052906127509087906119a6908790612fb2565b8161275757fe5b600354919004906001600160a01b037f0000000000000000000000000000000000000000000000000000000000000000811691635662311891166127a8620124f86119a6886509184e72a000612fb2565b60006040518463ffffffff1660e01b81526004016127c893929190613c55565b60206040518083038186803b1580156127e057600080fd5b505afa1580156127f4573d6000803e3d6000fd5b505050506040513d601f19601f82011682018060405250810190612818919061396e565b101593505050505b92915050565b60008084121561284657600019841461283f5781612841565b825b6106e9565b509192915050565b336000908152600860205260409020546128689082612f8f565b336000908152600860205260409020556006546128859082612f8f565b6006556040516001600160a01b0383169033907f8ad4d3ff00da092c7ad9a573ea4f5f6a3dffc6712dc06d3f78f49b862297c402906128c5908590613fde565b60405180910390a3600354604051633c6340f360e21b81526001600160a01b037f000000000000000000000000000000000000000000000000000000000000000081169263f18d03cc92612926929190911690309087908790600401613b5e565b600060405180830381600087803b15801561294057600080fd5b505af1158015612954573d6000803e3d6000fd5b505050505050565b60008060008060008089806020019051810190612979919061370e565b935093509350935061298c828989612826565b9150612999818989612826565b90507f00000000000000000000000000000000000000000000000000000000000000006001600160a01b03166302b9446c8a86338787876040518763ffffffff1660e01b81526004016129f0959493929190613b88565b60408051808303818588803b158015612a0857600080fd5b505af1158015612a1c573d6000803e3d6000fd5b50505050506040513d601f19601f82011682018060405250810190612a419190613986565b955095505050505094509492505050565b60008060008060008088806020019051810190612a6f919061370e565b93509350935093507f00000000000000000000000000000000000000000000000000000000000000006001600160a01b03166397da6d30853386612ab4878e8e612826565b612abf878f8f612826565b6040518663ffffffff1660e01b8152600401612adf959493929190613b88565b6040805180830381600087803b158015612af857600080fd5b505af1158015612b0c573d6000803e3d6000fd5b505050506040513d601f19601f82011682018060405250810190612b309190613986565b9550955050505050935093915050565b60606000806060600080600089806020019051810190612b60919061337a565b94509450945094509450828015612b75575081155b15612ba3578389604051602001612b8d9291906139e1565b6040516020818303038152906040529350612bfc565b82158015612bae5750815b15612bc6578388604051602001612b8d9291906139e1565b828015612bd05750815b15612bfc57838989604051602001612bea93929190613a03565b60405160208183030381529060405293505b7f00000000000000000000000000000000000000000000000000000000000000006001600160a01b0316856001600160a01b031614158015612c4757506001600160a01b0385163014155b612c635760405162461bcd60e51b815260040161060f90613e82565b60006060866001600160a01b03168d87604051612c8091906139c5565b60006040518083038185875af1925050503d8060008114612cbd576040519150601f19603f3d011682016040523d82523d6000602084013e612cc2565b606091505b509150915081612ce45760405162461bcd60e51b815260040161060f90613d15565b9c919b50909950505050505050505050565b600083602001516001600160801b031660001415612d15575081612d8f565b602084015184516001600160801b0391821691612d3491869116612fb2565b81612d3b57fe5b049050818015612d7f57508284600001516001600160801b0316612d7586602001516001600160801b031684612fb290919063ffffffff16565b81612d7c57fe5b04105b15612d8f576106e9816001612e0f565b9392505050565b82516000906001600160801b0316612daf575081612d8f565b835160208501516001600160801b0391821691612dce91869116612fb2565b81612dd557fe5b049050818015612d7f57508284602001516001600160801b0316612d7586600001516001600160801b031684612fb290919063ffffffff16565b818101818110156128205760405162461bcd60e51b815260040161060f90613de1565b8015612f0457612ee0827f00000000000000000000000000000000000000000000000000000000000000006001600160a01b031663f7888aec87306040518363ffffffff1660e01b8152600401612e8a929190613b44565b60206040518083038186803b158015612ea257600080fd5b505afa158015612eb6573d6000803e3d6000fd5b505050506040513d601f19601f82011682018060405250810190612eda919061396e565b90612f8f565b831115612eff5760405162461bcd60e51b815260040161060f90613ee7565b612f89565b604051633c6340f360e21b81526001600160a01b037f0000000000000000000000000000000000000000000000000000000000000000169063f18d03cc90612f56908790339030908990600401613b5e565b600060405180830381600087803b158015612f7057600080fd5b505af1158015612f84573d6000803e3d6000fd5b505050505b50505050565b808203828111156128205760405162461bcd60e51b815260040161060f90613c78565b6000811580612fcd57505080820282828281612fca57fe5b04145b6128205760405162461bcd60e51b815260040161060f90613f4a565b60006001600160801b038211156130125760405162461bcd60e51b815260040161060f90613d73565b5090565b8082036001600160801b0380841690821611156128205760405162461bcd60e51b815260040161060f90613c78565b8181016001600160801b0380831690821610156128205760405162461bcd60e51b815260040161060f90613de1565b61307c6131c2565b6000613089858585612cf6565b90506130a861309782612fe9565b86516001600160801b031690613016565b6001600160801b031685526130d36130bf85612fe9565b60208701516001600160801b031690613016565b6001600160801b03166020860152939492505050565b6130f16131c2565b60006130fe858585612d96565b905061311d61310c85612fe9565b86516001600160801b031690613045565b6001600160801b031685526130d361313482612fe9565b60208701516001600160801b031690613045565b828054600181600116156101000203166002900490600052602060002090601f016020900481019282601f1061318957805160ff19168380011785556131b6565b828001600101855582156131b6579182015b828111156131b657825182559160200191906001019061319b565b506130129291506131d9565b604080518082019091526000808252602082015290565b5b8082111561301257600081556001016131da565b8035612820816140fb565b60008083601f84011261320a578182fd5b5081356001600160401b03811115613220578182fd5b60208301915083602080830285010111156109dc57600080fd5b600082601f83011261324a578081fd5b813561325d61325882614081565b61405b565b81815291506020808301908481018184028601820187101561327e57600080fd5b60005b8481101561329d57813584529282019290820190600101613281565b505050505092915050565b805161282081614113565b80516001600160801b038116811461282057600080fd5b805161282081614121565b6000602082840312156132e6578081fd5b8135612d8f816140fb565b600060208284031215613302578081fd5b8151612d8f816140fb565b60008060008060008060c08789031215613325578182fd5b8635613330816140fb565b95506020870135613340816140fb565b9450604087013561335081614113565b9350606087013561336081614121565b9598949750929560808101359460a0909101359350915050565b600080600080600060a08688031215613391578283fd5b855161339c816140fb565b60208701519095506001600160401b038111156133b7578384fd5b8601601f810188136133c7578384fd5b80516133d5613258826140a0565b8181528960208385010111156133e9578586fd5b6133fa8260208301602086016140cf565b80965050505061340d87604088016132a8565b925061341c87606088016132a8565b915061342b87608088016132ca565b90509295509295909350565b60008060006060848603121561344b578081fd5b8335613456816140fb565b9250602084013561346681614113565b9150604084013561347681614113565b809150509250925092565b600080600060608486031215613495578081fd5b83356134a0816140fb565b925060208401356134b081614113565b929592945050506040919091013590565b600080604083850312156134d3578182fd5b82356134de816140fb565b946020939093013593505050565b60008060008060008060808789031215613504578384fd5b86356001600160401b038082111561351a578586fd5b6135268a838b016131f9565b9098509650602089013591508082111561353e578586fd5b5061354b89828a016131f9565b909550935050604087013561355f816140fb565b9150606087013561356f816140fb565b809150509295509295509295565b60008060008060008060608789031215613595578384fd5b86356001600160401b03808211156135ab578586fd5b6135b78a838b016131f9565b909850965060208901359150808211156135cf578586fd5b6135db8a838b016131f9565b909650945060408901359150808211156135f3578384fd5b5061360089828a016131f9565b979a9699509497509295939492505050565b60008060408385031215613624578182fd5b825161362f81614113565b6020939093015192949293505050565b600080600060608486031215613653578081fd5b833561365e81614113565b95602085013595506040909401359392505050565b60008060208385031215613685578182fd5b82356001600160401b038082111561369b578384fd5b818501915085601f8301126136ae578384fd5b8135818111156136bc578485fd5b8660208285010111156136cd578485fd5b60209290920196919550909350505050565b6000806000606084860312156136f3578081fd5b83356136fe816140fb565b925060208401356134b0816140fb565b60008060008060808587031215613723578182fd5b845161372e816140fb565b602086015190945061373f816140fb565b6040860151606090960151949790965092505050565b600080600060608486031215613769578081fd5b8335613774816140fb565b92506020848101356001600160401b0380821115613790578384fd5b818701915087601f8301126137a3578384fd5b81356137b161325882614081565b81815284810190848601868402860187018c10156137cd578788fd5b8795505b838610156137f7576137e38c826131ee565b8352600195909501949186019186016137d1565b5096505050604087013592508083111561380f578384fd5b505061381d8682870161323a565b9150509250925092565b60008060006060848603121561383b578081fd5b8335613846816140fb565b92506020840135613856816140fb565b915060408401356001600160401b03811115613870578182fd5b8401601f81018613613880578182fd5b803561388e613258826140a0565b8181528760208385010111156138a2578384fd5b8160208401602083013783602083830101528093505050509250925092565b6000602082840312156138d2578081fd5b5035919050565b600080604083850312156138eb578182fd5b8235915060208301356138fd816140fb565b809150509250929050565b60008060006060848603121561391c578081fd5b833592506020840135613466816140fb565b60006040828403121561393f578081fd5b613949604061405b565b61395384846132b3565b815261396284602085016132b3565b60208201529392505050565b60006020828403121561397f578081fd5b5051919050565b60008060408385031215613998578182fd5b505080516020909101519092909150565b6000602082840312156139ba578081fd5b8135612d8f81614121565b600082516139d78184602087016140cf565b9190910192915050565b600083516139f38184602088016140cf565b9190910191825250602001919050565b60008451613a158184602089016140cf565b91909101928352506020820152604001919050565b6001600160a01b0391909116815260200190565b6001600160a01b039687168152949095166020850152911515604084015260ff166060830152608082015260a081019190915260c00190565b9115158252602082015260400190565b6000602082528251806020840152613aa68160408501602087016140cf565b601f01601f19169190910160400192915050565b60006020808301818452828554600180821660008114613ae15760018114613aff57613b37565b60028304607f16855260ff1983166040890152606088019350613b37565b60028304808652613b0f8a6140c3565b885b82811015613b2d5781548b820160400152908401908801613b11565b8a01604001955050505b5091979650505050505050565b6001600160a01b0392831681529116602082015260400190565b6001600160a01b039485168152928416602084015292166040820152606081019190915260800190565b6001600160a01b03958616815293851660208501529190931660408301526060820192909252608081019190915260a00190565b60006080820160018060a01b0380881684526020818816818601526080604086015282875180855260a0870191508289019450855b81811015613c0f578551851683529483019491830191600101613bf1565b50508581036060870152865180825290820193509150808601845b83811015613c4657815185529382019390820190600101613c2a565b50929998505050505050505050565b6001600160a01b0393909316835260208301919091521515604082015260600190565b602080825260159082015274426f72696e674d6174683a20556e646572666c6f7760581b604082015260600190565b60208082526018908201527f4361756c64726f6e3a207573657220696e736f6c76656e740000000000000000604082015260600190565b60208082526017908201527f43616c6c6572206973206e6f7420746865206f776e6572000000000000000000604082015260600190565b60208082526015908201527410d85d5b191c9bdb8e8818d85b1b0819985a5b1959605a1b604082015260600190565b6020808252601590820152744f776e61626c653a207a65726f206164647265737360581b604082015260600190565b6020808252601c908201527f426f72696e674d6174683a2075696e74313238204f766572666c6f7700000000604082015260600190565b60208082526019908201527f4361756c64726f6e3a20616c6c2061726520736f6c76656e7400000000000000604082015260600190565b60208082526018908201527f426f72696e674d6174683a20416464204f766572666c6f770000000000000000604082015260600190565b6020808252818101527f4f776e61626c653a2063616c6c6572206973206e6f7420746865206f776e6572604082015260600190565b6020808252818101527f4f776e61626c653a2063616c6c657220213d2070656e64696e67206f776e6572604082015260600190565b60208082526014908201527310d85d5b191c9bdb8e8818d85b89dd0818d85b1b60621b604082015260600190565b6020808252601d908201527f4361756c64726f6e3a20616c726561647920696e697469616c697a6564000000604082015260600190565b60208082526017908201527f4361756c64726f6e3a20536b696d20746f6f206d756368000000000000000000604082015260600190565b60208082526012908201527121b0bab6323937b71d103130b2103830b4b960711b604082015260600190565b60208082526018908201527f426f72696e674d6174683a204d756c204f766572666c6f770000000000000000604082015260600190565b6020808252601590820152744361756c64726f6e3a2072617465206e6f74206f6b60581b604082015260600190565b6001600160801b0391909116815260200190565b6001600160801b0392831681529116602082015260400190565b90815260200190565b918252602082015260400190565b6001600160401b039290921682526001600160801b0316602082015260400190565b6000808335601e1984360301811261402d578283fd5b8301803591506001600160401b03821115614046578283fd5b6020019150368190038213156109dc57600080fd5b6040518181016001600160401b038111828210171561407957600080fd5b604052919050565b60006001600160401b03821115614096578081fd5b5060209081020190565b60006001600160401b038211156140b5578081fd5b50601f01601f191660200190565b60009081526020902090565b60005b838110156140ea5781810151838201526020016140d2565b83811115612f895750506000910152565b6001600160a01b038116811461411057600080fd5b50565b801515811461411057600080fd5b60ff8116811461411057600080fdfea2646970667358221220b0d27cc253981c111a944f8263785b080efd69dc75c1453740806165f5cb395f64736f6c634300060c0033",
  "linkReferences": {},
  "deployedLinkReferences": {}
}