{
  "_format": "hh-sol-artifact-1",
  "contractName": "ethKovanOracle",
  "sourceName": "contracts/oracles/ethKovanOracle.sol",
  "abi": [
    {
      "inputs": [],
      "name": "ETHUSD",
      "outputs": [
        {
          "internalType": "contract IAggregator",
          "name": "",
          "type": "address"
        }
      ],
      "stateMutability": "view",
      "type": "function"
    },
    {
      "inputs": [
        {
          "internalType": "bytes",
          "name": "",
          "type": "bytes"
        }
      ],
      "name": "get",
      "outputs": [
        {
          "internalType": "bool",
          "name": "",
          "type": "bool"
        },
        {
          "internalType": "uint256",
          "name": "",
          "type": "uint256"
        }
      ],
      "stateMutability": "view",
      "type": "function"
    },
    {
      "inputs": [
        {
          "internalType": "address",
          "name": "multiply",
          "type": "address"
        },
        {
          "internalType": "address",
          "name": "divide",
          "type": "address"
        },
        {
          "internalType": "uint256",
          "name": "decimals",
          "type": "uint256"
        }
      ],
      "name": "getDataParameter",
      "outputs": [
        {
          "internalType": "bytes",
          "name": "",
          "type": "bytes"
        }
      ],
      "stateMutability": "pure",
      "type": "function"
    },
    {
      "inputs": [
        {
          "internalType": "bytes",
          "name": "",
          "type": "bytes"
        }
      ],
      "name": "name",
      "outputs": [
        {
          "internalType": "string",
          "name": "",
          "type": "string"
        }
      ],
      "stateMutability": "pure",
      "type": "function"
    },
    {
      "inputs": [
        {
          "internalType": "bytes",
          "name": "",
          "type": "bytes"
        }
      ],
      "name": "peek",
      "outputs": [
        {
          "internalType": "bool",
          "name": "",
          "type": "bool"
        },
        {
          "internalType": "uint256",
          "name": "",
          "type": "uint256"
        }
      ],
      "stateMutability": "view",
      "type": "function"
    },
    {
      "inputs": [
        {
          "internalType": "bytes",
          "name": "data",
          "type": "bytes"
        }
      ],
      "name": "peekSpot",
      "outputs": [
        {
          "internalType": "uint256",
          "name": "rate",
          "type": "uint256"
        }
      ],
      "stateMutability": "view",
      "type": "function"
    },
    {
      "inputs": [
        {
          "internalType": "bytes",
          "name": "",
          "type": "bytes"
        }
      ],
      "name": "symbol",
      "outputs": [
        {
          "internalType": "string",
          "name": "",
          "type": "string"
        }
      ],
      "stateMutability": "pure",
      "type": "function"
    }
  ],
  "bytecode": "0x608060405234801561001057600080fd5b5061081b806100206000396000f3fe608060405234801561001057600080fd5b506004361061007d5760003560e01c8063d568866c1161005b578063d568866c14610100578063d6d7d52514610130578063eeb8a8d314610161578063fdc28b08146101925761007d565b806373db084414610082578063c699c4d6146100a0578063d39bbef0146100d0575b600080fd5b61008a6101c2565b60405161009791906105f6565b60405180910390f35b6100ba60048036038101906100b59190610458565b6101da565b6040516100c79190610611565b60405180910390f35b6100ea60048036038101906100e59190610458565b61021a565b6040516100f79190610633565b60405180910390f35b61011a60048036038101906101159190610458565b610232565b6040516101279190610611565b60405180910390f35b61014a60048036038101906101459190610458565b610272565b6040516101589291906105ab565b60405180910390f35b61017b60048036038101906101769190610458565b61028a565b6040516101899291906105ab565b60405180910390f35b6101ac60048036038101906101a79190610409565b6102a2565b6040516101b991906105d4565b60405180910390f35b739326bfa02add2366b30bacb125260af64103133181565b60606040518060400160405280600881526020017f4c494e4b2f455448000000000000000000000000000000000000000000000000815250905092915050565b6000610226838361028a565b90508091505092915050565b60606040518060400160405280600d81526020017f436861696e6c696e6b2065746800000000000000000000000000000000000000815250905092915050565b600080600161027f6102d1565b915091509250929050565b60008060016102976102d1565b915091509250929050565b60608383836040516020016102b993929190610574565b60405160208183030381529060405290509392505050565b6000739326bfa02add2366b30bacb125260af64103133173ffffffffffffffffffffffffffffffffffffffff166350d25bcd6040518163ffffffff1660e01b815260040160206040518083038186803b15801561032d57600080fd5b505afa158015610341573d6000803e3d6000fd5b505050506040513d601f19601f82011682018060405250810190610365919061049d565b6a52b7d2dcc80cd2e400000061037b9190610686565b905090565b60008135905061038f816107a0565b92915050565b60008083601f8401126103a757600080fd5b8235905067ffffffffffffffff8111156103c057600080fd5b6020830191508360018202830111156103d857600080fd5b9250929050565b6000815190506103ee816107b7565b92915050565b600081359050610403816107ce565b92915050565b60008060006060848603121561041e57600080fd5b600061042c86828701610380565b935050602061043d86828701610380565b925050604061044e868287016103f4565b9150509250925092565b6000806020838503121561046b57600080fd5b600083013567ffffffffffffffff81111561048557600080fd5b61049185828601610395565b92509250509250929050565b6000602082840312156104af57600080fd5b60006104bd848285016103df565b91505092915050565b6104cf816106b7565b82525050565b6104de816106c9565b82525050565b60006104ef8261064e565b6104f98185610664565b935061050981856020860161072d565b6105128161078f565b840191505092915050565b61052681610709565b82525050565b600061053782610659565b6105418185610675565b935061055181856020860161072d565b61055a8161078f565b840191505092915050565b61056e816106ff565b82525050565b600060608201905061058960008301866104c6565b61059660208301856104c6565b6105a36040830184610565565b949350505050565b60006040820190506105c060008301856104d5565b6105cd6020830184610565565b9392505050565b600060208201905081810360008301526105ee81846104e4565b905092915050565b600060208201905061060b600083018461051d565b92915050565b6000602082019050818103600083015261062b818461052c565b905092915050565b60006020820190506106486000830184610565565b92915050565b600081519050919050565b600081519050919050565b600082825260208201905092915050565b600082825260208201905092915050565b6000610691826106ff565b915061069c836106ff565b9250826106ac576106ab610760565b5b828204905092915050565b60006106c2826106df565b9050919050565b60008115159050919050565b6000819050919050565b600073ffffffffffffffffffffffffffffffffffffffff82169050919050565b6000819050919050565b60006107148261071b565b9050919050565b6000610726826106df565b9050919050565b60005b8381101561074b578082015181840152602081019050610730565b8381111561075a576000848401525b50505050565b7f4e487b7100000000000000000000000000000000000000000000000000000000600052601260045260246000fd5b6000601f19601f8301169050919050565b6107a9816106b7565b81146107b457600080fd5b50565b6107c0816106d5565b81146107cb57600080fd5b50565b6107d7816106ff565b81146107e257600080fd5b5056fea264697066735822122086bb9b1bbcb1042e9df7d21b8b917484b236115c58e2265cc1e8cfe1ef7a4c5664736f6c63430008040033",
  "linkReferences": {},
  "deployedLinkReferences": {}
}