{
  "_format": "hh-sol-artifact-1",
  "contractName": "MagicInternetMoney",
  "sourceName": "contracts/MagicInternetMoney.sol",
  "abi": [
    {
      "anonymous": false,
      "inputs": [
        {
          "indexed": true,
          "internalType": "address",
          "name": "_owner",
          "type": "address"
        },
        {
          "indexed": true,
          "internalType": "address",
          "name": "_spender",
          "type": "address"
        },
        {
          "indexed": false,
          "internalType": "uint256",
          "name": "_value",
          "type": "uint256"
        }
      ],
      "name": "Approval",
      "type": "event"
    },
    {
      "anonymous": false,
      "inputs": [
        {
          "indexed": true,
          "internalType": "address",
          "name": "previousOwner",
          "type": "address"
        },
        {
          "indexed": true,
          "internalType": "address",
          "name": "newOwner",
          "type": "address"
        }
      ],
      "name": "OwnershipTransferred",
      "type": "event"
    },
    {
      "anonymous": false,
      "inputs": [
        {
          "indexed": true,
          "internalType": "address",
          "name": "_from",
          "type": "address"
        },
        {
          "indexed": true,
          "internalType": "address",
          "name": "_to",
          "type": "address"
        },
        {
          "indexed": false,
          "internalType": "uint256",
          "name": "_value",
          "type": "uint256"
        }
      ],
      "name": "Transfer",
      "type": "event"
    },
    {
      "inputs": [],
      "name": "DOMAIN_SEPARATOR",
      "outputs": [
        {
          "internalType": "bytes32",
          "name": "",
          "type": "bytes32"
        }
      ],
      "stateMutability": "view",
      "type": "function"
    },
    {
      "inputs": [
        {
          "internalType": "address",
          "name": "",
          "type": "address"
        },
        {
          "internalType": "address",
          "name": "",
          "type": "address"
        }
      ],
      "name": "allowance",
      "outputs": [
        {
          "internalType": "uint256",
          "name": "",
          "type": "uint256"
        }
      ],
      "stateMutability": "view",
      "type": "function"
    },
    {
      "inputs": [
        {
          "internalType": "address",
          "name": "spender",
          "type": "address"
        },
        {
          "internalType": "uint256",
          "name": "amount",
          "type": "uint256"
        }
      ],
      "name": "approve",
      "outputs": [
        {
          "internalType": "bool",
          "name": "",
          "type": "bool"
        }
      ],
      "stateMutability": "nonpayable",
      "type": "function"
    },
    {
      "inputs": [
        {
          "internalType": "address",
          "name": "",
          "type": "address"
        }
      ],
      "name": "balanceOf",
      "outputs": [
        {
          "internalType": "uint256",
          "name": "",
          "type": "uint256"
        }
      ],
      "stateMutability": "view",
      "type": "function"
    },
    {
      "inputs": [
        {
          "internalType": "uint256",
          "name": "amount",
          "type": "uint256"
        }
      ],
      "name": "burn",
      "outputs": [],
      "stateMutability": "nonpayable",
      "type": "function"
    },
    {
      "inputs": [],
      "name": "claimOwnership",
      "outputs": [],
      "stateMutability": "nonpayable",
      "type": "function"
    },
    {
      "inputs": [],
      "name": "decimals",
      "outputs": [
        {
          "internalType": "uint8",
          "name": "",
          "type": "uint8"
        }
      ],
      "stateMutability": "view",
      "type": "function"
    },
    {
      "inputs": [],
      "name": "lastMint",
      "outputs": [
        {
          "internalType": "uint128",
          "name": "time",
          "type": "uint128"
        },
        {
          "internalType": "uint128",
          "name": "amount",
          "type": "uint128"
        }
      ],
      "stateMutability": "view",
      "type": "function"
    },
    {
      "inputs": [
        {
          "internalType": "address",
          "name": "to",
          "type": "address"
        },
        {
          "internalType": "uint256",
          "name": "amount",
          "type": "uint256"
        }
      ],
      "name": "mint",
      "outputs": [],
      "stateMutability": "nonpayable",
      "type": "function"
    },
    {
      "inputs": [],
      "name": "name",
      "outputs": [
        {
          "internalType": "string",
          "name": "",
          "type": "string"
        }
      ],
      "stateMutability": "view",
      "type": "function"
    },
    {
      "inputs": [
        {
          "internalType": "address",
          "name": "",
          "type": "address"
        }
      ],
      "name": "nonces",
      "outputs": [
        {
          "internalType": "uint256",
          "name": "",
          "type": "uint256"
        }
      ],
      "stateMutability": "view",
      "type": "function"
    },
    {
      "inputs": [],
      "name": "owner",
      "outputs": [
        {
          "internalType": "address",
          "name": "",
          "type": "address"
        }
      ],
      "stateMutability": "view",
      "type": "function"
    },
    {
      "inputs": [],
      "name": "pendingOwner",
      "outputs": [
        {
          "internalType": "address",
          "name": "",
          "type": "address"
        }
      ],
      "stateMutability": "view",
      "type": "function"
    },
    {
      "inputs": [
        {
          "internalType": "address",
          "name": "owner_",
          "type": "address"
        },
        {
          "internalType": "address",
          "name": "spender",
          "type": "address"
        },
        {
          "internalType": "uint256",
          "name": "value",
          "type": "uint256"
        },
        {
          "internalType": "uint256",
          "name": "deadline",
          "type": "uint256"
        },
        {
          "internalType": "uint8",
          "name": "v",
          "type": "uint8"
        },
        {
          "internalType": "bytes32",
          "name": "r",
          "type": "bytes32"
        },
        {
          "internalType": "bytes32",
          "name": "s",
          "type": "bytes32"
        }
      ],
      "name": "permit",
      "outputs": [],
      "stateMutability": "nonpayable",
      "type": "function"
    },
    {
      "inputs": [],
      "name": "symbol",
      "outputs": [
        {
          "internalType": "string",
          "name": "",
          "type": "string"
        }
      ],
      "stateMutability": "view",
      "type": "function"
    },
    {
      "inputs": [],
      "name": "totalSupply",
      "outputs": [
        {
          "internalType": "uint256",
          "name": "",
          "type": "uint256"
        }
      ],
      "stateMutability": "view",
      "type": "function"
    },
    {
      "inputs": [
        {
          "internalType": "address",
          "name": "to",
          "type": "address"
        },
        {
          "internalType": "uint256",
          "name": "amount",
          "type": "uint256"
        }
      ],
      "name": "transfer",
      "outputs": [
        {
          "internalType": "bool",
          "name": "",
          "type": "bool"
        }
      ],
      "stateMutability": "nonpayable",
      "type": "function"
    },
    {
      "inputs": [
        {
          "internalType": "address",
          "name": "from",
          "type": "address"
        },
        {
          "internalType": "address",
          "name": "to",
          "type": "address"
        },
        {
          "internalType": "uint256",
          "name": "amount",
          "type": "uint256"
        }
      ],
      "name": "transferFrom",
      "outputs": [
        {
          "internalType": "bool",
          "name": "",
          "type": "bool"
        }
      ],
      "stateMutability": "nonpayable",
      "type": "function"
    },
    {
      "inputs": [
        {
          "internalType": "address",
          "name": "newOwner",
          "type": "address"
        },
        {
          "internalType": "bool",
          "name": "direct",
          "type": "bool"
        },
        {
          "internalType": "bool",
          "name": "renounce",
          "type": "bool"
        }
      ],
      "name": "transferOwnership",
      "outputs": [],
      "stateMutability": "nonpayable",
      "type": "function"
    }
  ],
  "bytecode": "0x60c060405234801561001057600080fd5b504660a081905261002081610069565b60805250600380546001600160a01b031916339081179091556040516000907f8be0079c531659141344cd1fd0a4f28419497f9722a3daafe3b4186f6b6457e0908290a36100c2565b604080517f47e79534a245952e8b16893a336b85a3d9ea9fa8c573f3d803afb92a794692186020808301919091528183019390935230606080830191909152825180830390910181526080909101909152805191012090565b60805160a0516112826100e560003980610fb6525080610feb52506112826000f3fe608060405234801561001057600080fd5b50600436106101215760003560e01c80634e71e0c8116100ad57806395d89b411161007157806395d89b4114610389578063a9059cbb14610391578063d505accf146103bd578063dd62ed3e1461040e578063e30c39781461043c57610121565b80634e71e0c8146102da578063586fc5b5146102e257806370a08231146103195780637ecebe001461033f5780638da5cb5b1461036557610121565b806323b872dd116100f457806323b872dd14610235578063313ce5671461026b5780633644e5151461028957806340c10f191461029157806342966c68146102bd57610121565b806306fdde0314610126578063078dfbe7146101a3578063095ea7b3146101db57806318160ddd1461021b575b600080fd5b61012e610444565b6040805160208082528351818301528351919283929083019185019080838360005b83811015610168578181015183820152602001610150565b50505050905090810190601f1680156101955780820380516001836020036101000a031916815260200191505b509250505060405180910390f35b6101d9600480360360608110156101b957600080fd5b506001600160a01b03813516906020810135151590604001351515610474565b005b610207600480360360408110156101f157600080fd5b506001600160a01b0381351690602001356105bd565b604080519115158252519081900360200190f35b610223610624565b60408051918252519081900360200190f35b6102076004803603606081101561024b57600080fd5b506001600160a01b0381358116916020810135909116906040013561062a565b610273610823565b6040805160ff9092168252519081900360200190f35b610223610828565b6101d9600480360360408110156102a757600080fd5b506001600160a01b038135169060200135610837565b6101d9600480360360208110156102d357600080fd5b5035610a20565b6101d9610abc565b6102ea610b7f565b60405180836001600160801b03168152602001826001600160801b031681526020019250505060405180910390f35b6102236004803603602081101561032f57600080fd5b50356001600160a01b0316610b99565b6102236004803603602081101561035557600080fd5b50356001600160a01b0316610bab565b61036d610bbd565b604080516001600160a01b039092168252519081900360200190f35b61012e610bcc565b610207600480360360408110156103a757600080fd5b506001600160a01b038135169060200135610beb565b6101d9600480360360e08110156103d357600080fd5b506001600160a01b03813581169160208101359091169060408101359060608101359060ff6080820135169060a08101359060c00135610d2d565b6102236004803603604081101561042457600080fd5b506001600160a01b0381358116916020013516610f85565b61036d610fa2565b604051806040016040528060148152602001734d6167696320496e7465726e6574204d6f6e657960601b81525081565b6003546001600160a01b031633146104d3576040805162461bcd60e51b815260206004820181905260248201527f4f776e61626c653a2063616c6c6572206973206e6f7420746865206f776e6572604482015290519081900360640190fd5b811561059c576001600160a01b0383161515806104ed5750805b610536576040805162461bcd60e51b81526020600482015260156024820152744f776e61626c653a207a65726f206164647265737360581b604482015290519081900360640190fd5b6003546040516001600160a01b038086169216907f8be0079c531659141344cd1fd0a4f28419497f9722a3daafe3b4186f6b6457e090600090a3600380546001600160a01b0385166001600160a01b0319918216179091556004805490911690556105b8565b600480546001600160a01b0319166001600160a01b0385161790555b505050565b3360008181526001602090815260408083206001600160a01b038716808552908352818420869055815186815291519394909390927f8c5be1e5ebec7d5bd14f71427d1e84f3dd0314c0f7b2291e5b200ac8c7c3b925928290030190a35060015b92915050565b60055481565b600081156107e0576001600160a01b03841660009081526020819052604090205482811015610699576040805162461bcd60e51b815260206004820152601660248201527545524332303a2062616c616e636520746f6f206c6f7760501b604482015290519081900360640190fd5b836001600160a01b0316856001600160a01b0316146107de576001600160a01b0385166000908152600160209081526040808320338452909152902054600019811461075d5783811015610734576040805162461bcd60e51b815260206004820152601860248201527f45524332303a20616c6c6f77616e636520746f6f206c6f770000000000000000604482015290519081900360640190fd5b6001600160a01b0386166000908152600160209081526040808320338452909152902084820390555b6001600160a01b0385166107b1576040805162461bcd60e51b815260206004820152601660248201527545524332303a206e6f207a65726f206164647265737360501b604482015290519081900360640190fd5b506001600160a01b0380861660009081526020819052604080822086850390559186168152208054840190555b505b826001600160a01b0316846001600160a01b031660008051602061122d833981519152846040518082815260200191505060405180910390a35060019392505050565b601281565b6000610832610fb1565b905090565b6003546001600160a01b03163314610896576040805162461bcd60e51b815260206004820181905260248201527f4f776e61626c653a2063616c6c6572206973206e6f7420746865206f776e6572604482015290519081900360640190fd5b6001600160a01b0382166108f1576040805162461bcd60e51b815260206004820152601c60248201527f4d494d3a206e6f206d696e7420746f207a65726f206164647265737300000000604482015290519081900360640190fd5b60065460009061093e9083906201517f1942016001600160801b039091161061092c57600654600160801b90046001600160801b031661092f565b60005b6001600160801b031690611011565b905060055460001480610973575080620186a0610968613a9860055461106990919063ffffffff16565b8161096f57fe5b0410155b61097c57600080fd5b610985426110d5565b600680546fffffffffffffffffffffffffffffffff19166001600160801b03929092169190911790556109b7816110d5565b600680546001600160801b03928316600160801b02921691909117905560058054830190556001600160a01b0383166000818152602081815260408083208054870190558051868152905160008051602061122d833981519152929181900390910190a3505050565b33600090815260208190526040902054811115610a76576040805162461bcd60e51b815260206004820152600f60248201526e09a929a7440dcdee840cadcdeeaced608b1b604482015290519081900360640190fd5b33600081815260208181526040808320805486900390556005805486900390558051858152905192939260008051602061122d833981519152929181900390910190a350565b6004546001600160a01b0316338114610b1c576040805162461bcd60e51b815260206004820181905260248201527f4f776e61626c653a2063616c6c657220213d2070656e64696e67206f776e6572604482015290519081900360640190fd5b6003546040516001600160a01b038084169216907f8be0079c531659141344cd1fd0a4f28419497f9722a3daafe3b4186f6b6457e090600090a3600380546001600160a01b039092166001600160a01b0319928316179055600480549091169055565b6006546001600160801b0380821691600160801b90041682565b60006020819052908152604090205481565b60026020526000908152604090205481565b6003546001600160a01b031681565b604051806040016040528060038152602001624d494d60e81b81525081565b600081151580610c035750336001600160a01b038416145b15610cf6573360009081526020819052604090205482811015610c66576040805162461bcd60e51b815260206004820152601660248201527545524332303a2062616c616e636520746f6f206c6f7760501b604482015290519081900360640190fd5b336001600160a01b03851614610cf4576001600160a01b038416610cca576040805162461bcd60e51b815260206004820152601660248201527545524332303a206e6f207a65726f206164647265737360501b604482015290519081900360640190fd5b3360009081526020819052604080822085840390556001600160a01b038616825290208054840190555b505b6040805183815290516001600160a01b03851691339160008051602061122d8339815191529181900360200190a350600192915050565b6001600160a01b038716610d88576040805162461bcd60e51b815260206004820152601860248201527f45524332303a204f776e65722063616e6e6f7420626520300000000000000000604482015290519081900360640190fd5b834210610dcd576040805162461bcd60e51b815260206004820152600e60248201526d115490cc8c0e88115e1c1a5c995960921b604482015290519081900360640190fd5b6001600160a01b038088166000818152600260209081526040918290208054600181810190925583517f6e71edae12b1b97f4d1f60370fef10105fa2faae0126114a169c64845d6126c981850152808501869052958c166060870152608086018b905260a086015260c08086018a90528351808703909101815260e09095019092528351930192909220909190610e6390611137565b85858560405160008152602001604052604051808581526020018460ff1681526020018381526020018281526020019450505050506020604051602081039080840390855afa158015610eba573d6000803e3d6000fd5b505050602060405103516001600160a01b031614610f1f576040805162461bcd60e51b815260206004820152601860248201527f45524332303a20496e76616c6964205369676e61747572650000000000000000604482015290519081900360640190fd5b6001600160a01b038088166000818152600160209081526040808320948b1680845294825291829020899055815189815291517f8c5be1e5ebec7d5bd14f71427d1e84f3dd0314c0f7b2291e5b200ac8c7c3b9259281900390910190a350505050505050565b600160209081526000928352604080842090915290825290205481565b6004546001600160a01b031681565b6000467f00000000000000000000000000000000000000000000000000000000000000008114610fe957610fe4816111d3565b61100b565b7f00000000000000000000000000000000000000000000000000000000000000005b91505090565b8181018181101561061e576040805162461bcd60e51b815260206004820152601860248201527f426f72696e674d6174683a20416464204f766572666c6f770000000000000000604482015290519081900360640190fd5b60008115806110845750508082028282828161108157fe5b04145b61061e576040805162461bcd60e51b815260206004820152601860248201527f426f72696e674d6174683a204d756c204f766572666c6f770000000000000000604482015290519081900360640190fd5b60006001600160801b03821115611133576040805162461bcd60e51b815260206004820152601c60248201527f426f72696e674d6174683a2075696e74313238204f766572666c6f7700000000604482015290519081900360640190fd5b5090565b600060405180604001604052806002815260200161190160f01b81525061115c610fb1565b836040516020018084805190602001908083835b6020831061118f5780518252601f199092019160209182019101611170565b51815160209384036101000a600019018019909216911617905292019485525083810192909252506040805180840383018152928101905281519101209392505050565b604080517f47e79534a245952e8b16893a336b85a3d9ea9fa8c573f3d803afb92a79469218602080830191909152818301939093523060608083019190915282518083039091018152608090910190915280519101209056feddf252ad1be2c89b69c2b068fc378daa952ba7f163c4a11628f55a4df523b3efa2646970667358221220d2a58a9c1eabc61570f45e9360c3243349d2f73e4cd8464035b91861b964d8ca64736f6c634300060c0033",
  "linkReferences": {},
  "deployedLinkReferences": {}
}