{
  "_format": "hh-sol-artifact-1",
  "contractName": "WethOracle",
  "sourceName": "contracts/oracles/WethOracle.sol",
  "abi": [
    {
      "inputs": [],
      "name": "ETHUSD",
      "outputs": [
        {
          "internalType": "contract IAggregator",
          "name": "",
          "type": "address"
        }
      ],
      "stateMutability": "view",
      "type": "function"
    },
    {
      "inputs": [
        {
          "internalType": "bytes",
          "name": "",
          "type": "bytes"
        }
      ],
      "name": "get",
      "outputs": [
        {
          "internalType": "bool",
          "name": "",
          "type": "bool"
        },
        {
          "internalType": "uint256",
          "name": "",
          "type": "uint256"
        }
      ],
      "stateMutability": "view",
      "type": "function"
    },
    {
      "inputs": [
        {
          "internalType": "bytes",
          "name": "",
          "type": "bytes"
        }
      ],
      "name": "name",
      "outputs": [
        {
          "internalType": "string",
          "name": "",
          "type": "string"
        }
      ],
      "stateMutability": "pure",
      "type": "function"
    },
    {
      "inputs": [
        {
          "internalType": "bytes",
          "name": "",
          "type": "bytes"
        }
      ],
      "name": "peek",
      "outputs": [
        {
          "internalType": "bool",
          "name": "",
          "type": "bool"
        },
        {
          "internalType": "uint256",
          "name": "",
          "type": "uint256"
        }
      ],
      "stateMutability": "view",
      "type": "function"
    },
    {
      "inputs": [
        {
          "internalType": "bytes",
          "name": "data",
          "type": "bytes"
        }
      ],
      "name": "peekSpot",
      "outputs": [
        {
          "internalType": "uint256",
          "name": "rate",
          "type": "uint256"
        }
      ],
      "stateMutability": "view",
      "type": "function"
    },
    {
      "inputs": [
        {
          "internalType": "bytes",
          "name": "",
          "type": "bytes"
        }
      ],
      "name": "symbol",
      "outputs": [
        {
          "internalType": "string",
          "name": "",
          "type": "string"
        }
      ],
      "stateMutability": "pure",
      "type": "function"
    }
  ],
  "bytecode": "0x608060405234801561001057600080fd5b5061062b806100206000396000f3fe608060405234801561001057600080fd5b50600436106100625760003560e01c806373db084414610067578063c699c4d614610085578063d39bbef0146100b5578063d568866c146100e5578063d6d7d52514610115578063eeb8a8d314610146575b600080fd5b61006f610177565b60405161007c9190610462565b60405180910390f35b61009f600480360381019061009a9190610365565b61018f565b6040516100ac919061047d565b60405180910390f35b6100cf60048036038101906100ca9190610365565b6101cf565b6040516100dc919061049f565b60405180910390f35b6100ff60048036038101906100fa9190610365565b6101e7565b60405161010c919061047d565b60405180910390f35b61012f600480360381019061012a9190610365565b610227565b60405161013d929190610439565b60405180910390f35b610160600480360381019061015b9190610365565b61023f565b60405161016e929190610439565b60405180910390f35b739326bfa02add2366b30bacb125260af64103133181565b60606040518060400160405280600881526020017f4c494e4b2f455448000000000000000000000000000000000000000000000000815250905092915050565b60006101db838361023f565b90508091505092915050565b60606040518060400160405280600d81526020017f436861696e6c696e6b2045544800000000000000000000000000000000000000815250905092915050565b6000806001610234610257565b915091509250929050565b600080600161024c610257565b915091509250929050565b6000739326bfa02add2366b30bacb125260af64103133173ffffffffffffffffffffffffffffffffffffffff166350d25bcd6040518163ffffffff1660e01b815260040160206040518083038186803b1580156102b357600080fd5b505afa1580156102c7573d6000803e3d6000fd5b505050506040513d601f19601f820116820180604052508101906102eb91906103aa565b6a52b7d2dcc80cd2e400000061030191906104d6565b905090565b60008083601f84011261031857600080fd5b8235905067ffffffffffffffff81111561033157600080fd5b60208301915083600182028301111561034957600080fd5b9250929050565b60008151905061035f816105de565b92915050565b6000806020838503121561037857600080fd5b600083013567ffffffffffffffff81111561039257600080fd5b61039e85828601610306565b92509250509250929050565b6000602082840312156103bc57600080fd5b60006103ca84828501610350565b91505092915050565b6103dc81610507565b82525050565b6103eb81610547565b82525050565b60006103fc826104ba565b61040681856104c5565b935061041681856020860161056b565b61041f816105cd565b840191505092915050565b6104338161053d565b82525050565b600060408201905061044e60008301856103d3565b61045b602083018461042a565b9392505050565b600060208201905061047760008301846103e2565b92915050565b6000602082019050818103600083015261049781846103f1565b905092915050565b60006020820190506104b4600083018461042a565b92915050565b600081519050919050565b600082825260208201905092915050565b60006104e18261053d565b91506104ec8361053d565b9250826104fc576104fb61059e565b5b828204905092915050565b60008115159050919050565b6000819050919050565b600073ffffffffffffffffffffffffffffffffffffffff82169050919050565b6000819050919050565b600061055282610559565b9050919050565b60006105648261051d565b9050919050565b60005b8381101561058957808201518184015260208101905061056e565b83811115610598576000848401525b50505050565b7f4e487b7100000000000000000000000000000000000000000000000000000000600052601260045260246000fd5b6000601f19601f8301169050919050565b6105e781610513565b81146105f257600080fd5b5056fea2646970667358221220d017aed8512d42bddb978708acff2bba3811f0bf4273cc4c5e106ec5c77bc44064736f6c63430008040033",
  "linkReferences": {},
  "deployedLinkReferences": {}
}