{
  "_format": "hh-sol-artifact-1",
  "contractName": "xSUSHIOracle",
  "sourceName": "contracts/oracles/xSUSHIOracle.sol",
  "abi": [
    {
      "inputs": [
        {
          "internalType": "contract IERC20",
          "name": "sushi_",
          "type": "address"
        },
        {
          "internalType": "contract IERC20",
          "name": "bar_",
          "type": "address"
        },
        {
          "internalType": "contract IAggregator",
          "name": "sushiOracle_",
          "type": "address"
        }
      ],
      "stateMutability": "nonpayable",
      "type": "constructor"
    },
    {
      "inputs": [],
      "name": "bar",
      "outputs": [
        {
          "internalType": "contract IERC20",
          "name": "",
          "type": "address"
        }
      ],
      "stateMutability": "view",
      "type": "function"
    },
    {
      "inputs": [
        {
          "internalType": "bytes",
          "name": "data",
          "type": "bytes"
        }
      ],
      "name": "get",
      "outputs": [
        {
          "internalType": "bool",
          "name": "",
          "type": "bool"
        },
        {
          "internalType": "uint256",
          "name": "",
          "type": "uint256"
        }
      ],
      "stateMutability": "nonpayable",
      "type": "function"
    },
    {
      "inputs": [
        {
          "internalType": "address",
          "name": "divide",
          "type": "address"
        },
        {
          "internalType": "uint256",
          "name": "decimals",
          "type": "uint256"
        }
      ],
      "name": "getDataParameter",
      "outputs": [
        {
          "internalType": "bytes",
          "name": "",
          "type": "bytes"
        }
      ],
      "stateMutability": "pure",
      "type": "function"
    },
    {
      "inputs": [
        {
          "internalType": "bytes",
          "name": "",
          "type": "bytes"
        }
      ],
      "name": "name",
      "outputs": [
        {
          "internalType": "string",
          "name": "",
          "type": "string"
        }
      ],
      "stateMutability": "view",
      "type": "function"
    },
    {
      "inputs": [
        {
          "internalType": "bytes",
          "name": "data",
          "type": "bytes"
        }
      ],
      "name": "peek",
      "outputs": [
        {
          "internalType": "bool",
          "name": "",
          "type": "bool"
        },
        {
          "internalType": "uint256",
          "name": "",
          "type": "uint256"
        }
      ],
      "stateMutability": "view",
      "type": "function"
    },
    {
      "inputs": [
        {
          "internalType": "bytes",
          "name": "data",
          "type": "bytes"
        }
      ],
      "name": "peekSpot",
      "outputs": [
        {
          "internalType": "uint256",
          "name": "rate",
          "type": "uint256"
        }
      ],
      "stateMutability": "view",
      "type": "function"
    },
    {
      "inputs": [],
      "name": "sushi",
      "outputs": [
        {
          "internalType": "contract IERC20",
          "name": "",
          "type": "address"
        }
      ],
      "stateMutability": "view",
      "type": "function"
    },
    {
      "inputs": [],
      "name": "sushiOracle",
      "outputs": [
        {
          "internalType": "contract IAggregator",
          "name": "",
          "type": "address"
        }
      ],
      "stateMutability": "view",
      "type": "function"
    },
    {
      "inputs": [
        {
          "internalType": "bytes",
          "name": "",
          "type": "bytes"
        }
      ],
      "name": "symbol",
      "outputs": [
        {
          "internalType": "string",
          "name": "",
          "type": "string"
        }
      ],
      "stateMutability": "view",
      "type": "function"
    }
  ],
  "bytecode": "0x60e060405234801561001057600080fd5b5060405161087d38038061087d8339818101604052606081101561003357600080fd5b50805160208201516040909201516001600160601b0319606092831b811660805292821b831660a052901b1660c05260805160601c60a05160601c60c05160601c6107d26100ab60003980610378528061061452508061047752806104e2528061058452508061035452806104b352506107d26000f3fe608060405234801561001057600080fd5b50600436106100935760003560e01c8063d39bbef011610066578063d39bbef0146101d3578063d568866c14610253578063d6d7d525146102c1578063eeb8a8d3146102c1578063febb0f7e1461034a57610093565b80630a08790314610098578063a1e66a40146100bc578063c699c4d6146100c4578063cc9e38c6146101a7575b600080fd5b6100a0610352565b604080516001600160a01b039092168252519081900360200190f35b6100a0610376565b610132600480360360208110156100da57600080fd5b810190602081018135600160201b8111156100f457600080fd5b82018360208201111561010657600080fd5b803590602001918460018302840111600160201b8311171561012757600080fd5b50909250905061039a565b6040805160208082528351818301528351919283929083019185019080838360005b8381101561016c578181015183820152602001610154565b50505050905090810190601f1680156101995780820380516001836020036101000a031916815260200191505b509250505060405180910390f35b610132600480360360408110156101bd57600080fd5b506001600160a01b0381351690602001356103c3565b610241600480360360208110156101e957600080fd5b810190602081018135600160201b81111561020357600080fd5b82018360208201111561021557600080fd5b803590602001918460018302840111600160201b8311171561023657600080fd5b5090925090506103f2565b60408051918252519081900360200190f35b6101326004803603602081101561026957600080fd5b810190602081018135600160201b81111561028357600080fd5b82018360208201111561029557600080fd5b803590602001918460018302840111600160201b831117156102b657600080fd5b509092509050610406565b61032f600480360360208110156102d757600080fd5b810190602081018135600160201b8111156102f157600080fd5b82018360208201111561030357600080fd5b803590602001918460018302840111600160201b8311171561032457600080fd5b509092509050610432565b60408051921515835260208301919091528051918290030190f35b6100a0610475565b7f000000000000000000000000000000000000000000000000000000000000000081565b7f000000000000000000000000000000000000000000000000000000000000000081565b60408051808201909152600b81526a7853555348492d4c494e4b60a81b60208201525b92915050565b604080516001600160a01b03939093166020840152828101919091528051808303820181526060909201905290565b60006103fe8383610432565b949350505050565b505060408051808201909152601081526f78535553484920436861696e6c696e6b60801b602082015290565b6000806000808585604081101561044857600080fd5b506001600160a01b03813516925060200135905060016104688383610499565b9350935050509250929050565b7f000000000000000000000000000000000000000000000000000000000000000081565b6000806ec097ce7bc90715b34b9f1000000000905061069c7f00000000000000000000000000000000000000000000000000000000000000006001600160a01b03166370a082317f00000000000000000000000000000000000000000000000000000000000000006040518263ffffffff1660e01b815260040180826001600160a01b0316815260200191505060206040518083038186803b15801561053e57600080fd5b505afa158015610552573d6000803e3d6000fd5b505050506040513d602081101561056857600080fd5b5051604080516318160ddd60e01b815290516001600160a01b037f000000000000000000000000000000000000000000000000000000000000000016916318160ddd916004808301926020929190829003018186803b1580156105ca57600080fd5b505afa1580156105de573d6000803e3d6000fd5b505050506040513d60208110156105f457600080fd5b5051604080516350d25bcd60e01b8152905161068e916001600160a01b037f000000000000000000000000000000000000000000000000000000000000000016916350d25bcd91600480820192602092909190829003018186803b15801561065b57600080fd5b505afa15801561066f573d6000803e3d6000fd5b505050506040513d602081101561068557600080fd5b50518590610730565b8161069557fe5b0490610730565b90506001600160a01b0384161561071e57836001600160a01b03166350d25bcd6040518163ffffffff1660e01b815260040160206040518083038186803b1580156106e657600080fd5b505afa1580156106fa573d6000803e3d6000fd5b505050506040513d602081101561071057600080fd5b5051818161071a57fe5b0490505b82818161072757fe5b04949350505050565b600081158061074b5750508082028282828161074857fe5b04145b6103bd576040805162461bcd60e51b815260206004820152601860248201527f426f72696e674d6174683a204d756c204f766572666c6f770000000000000000604482015290519081900360640190fdfea2646970667358221220a70d9e049de865e4a49cabb68c33ac539191db869cb2bcdc2cd79286cd22ede364736f6c634300060c0033",
  "linkReferences": {},
  "deployedLinkReferences": {}
}